:020000020000FC
:040000000C9422003A
:04000C000C9431021D
:040034000C94230302
:100040000C943C030FEF0DBF18E01EBF00E800E862
:100050000093610001E0009361000FE105B900E247
:1000600004B90FE307B90FEF0AB90FE100936B0072
:1000700001E00093680000E00093C10001E0789483
:100080003F065B4F666D7D077F6F41E059E065E09D
:1000900073E082E091E0A3E0B9E030E0D0E01D2E13
:1000A000D0E02D2ED0E03D2ED0E04D2EC0E022E05D
:1000B0000E9432030E941303403051F0413081F01E
:1000C000423041F0433041F0443041F00C945C0048
:1000D0000C94B7000C940A010C9457010C94D301B2
:1000E0005A3091F16630A1F17A30A9F18230B9F13C
:1000F0000E94240201E108B9F0E0E0E8E50F049174
:100100000BB90E94240202E008B9F0E0E0E8E60F33
:1001100004910BB90E94240204E008B9F0E0E0E881
:10012000E70F04910BB90E94240208E008B9F0E03F
:10013000E0E8E80F04910BB90E9424020C945C00E3
:10014000C0E053950C94700050E063950C947000DF
:1001500060E00C94700070E083950C947000743033
:1001600011F00C94780070E080E00C947800481650
:1001700001F00E949E01CC3391F15A30A1F166301A
:10018000B1F17A30C1F18230D1F10E949E010E941A
:10019000240201E008B9F0E0E0E8E50F04910BB9B2
:1001A0000E94240202E008B9F0E0E0E8E60F0491C2
:1001B0000BB90E94240204E008B9F0E0E0E8E70F80
:1001C00004910BB90E94240208E008B9F0E0E0E8CD
:1001D000E80F04910BB90E9424020C945C00C0E06B
:1001E00053950C94B70050E063950C94B70060E011
:1001F00073950C94B70070E083950C94B70074303D
:1002000011F00C94C50050E060E070E080E0939540
:100210000C94B7009A3081F1A33091F1BA30B9F162
:100220003030C9F13130E9F10E94240204E208B90A
:10023000F0E0E0E8E90F04910BB90E94240208E025
:1002400008B9F0E0E0E8EA0F04910BB90E9424023B
:1002500001E008B9F0E0E0E8EB0F04910BB90E946F
:10026000240202E008B9F0E0E0E8E30F04910BB9E2
:100270000E9424020C945C0090E0A3950C940A0167
:10028000923091F691E0A0E0B3950C940A01B0E0B1
:1002900033950C940A01BA3039F6B0E031E00C9491
:1002A0000A01B33009F6B1E030E00C940A019A304B
:1002B00071F1A33081F1BA30A1F13130C1F10E9466
:1002C000240204E308B9F0E0E0E8E90F04910BB977
:1002D0000E94240208E008B9F0E0E0E8EA0F049187
:1002E0000BB90E94240201E008B9F0E0E0E8EB0F4E
:1002F00004910BB90E94240202E008B9F0E0E0E8A2
:10030000E30F04910BB90E9424020C945C0090E06E
:10031000A3950C945701923091F691E0A0E00C94D3
:100320005701BA3021F6B0E033950C945701B33041
:1003300031F6B0E031E00C94570108952D9848163D
:10034000E1F73716D1F72616C1F71516B1F72D9A32
:100350000E9424022D980E94240201E008B9F0E0D6
:10036000E0E8E10D04910BB90E94240202E008B913
:10037000F0E0E0E8E20D04910BB90E94240204E0F1
:1003800008B9F0E0E0E8E30D04910BB90E94240203
:1003900008E008B9F0E0E0E8E40D04910BB90E9430
:1003A00024020C949E01D12DDA30A9F1D22DD63041
:1003B000B9F1D32DDA30C1F1D42D8230D1F10E94C0
:1003C000240201E108B9F0E0E0E8E10D04910BB985
:1003D0000E94240202E008B9F0E0E0E8E20D049196
:1003E0000BB90E94240204E008B9F0E0E0E8E30D54
:1003F00004910BB90E94240208E008B9F0E0E0E89B
:10040000E40D04910BB90E9424020C945C00C0E03E
:1004100013940C947000D0E01D2E23940C94D301FF
:10042000D0E02D2E0C947000D0E03D2E43940C941F
:10043000D301D32DD43019F0D42D0C94DF01D0E0AA
:100440003D2E4D2E0C94DF010FEF0A95F1F70FEFC3
:100450000A95F1F70FEF0A95F1F70FEF0A95F1F70B
:1004600008950F930FB70F93DF9303B104FF4395E4
:10047000453009F440E0413061F0423071F14330E1
:1004800021F0443021F00C940D030C9479020C946B
:10049000C90200FF0C944D02539501FF0C945A02BF
:1004A0005A955F3F39F459E06A956F3FB1F465E0C2
:1004B0000C945A0202FF0C945E02739503FF0C9495
:1004C0000D037A957F3F49F48A95813041F0803061
:1004D00049F08F3F51F00C940D030C940D037AE01A
:1004E0000C9449027AE00C94490274E082E00C9486
:1004F000490200FF0C947D02939501FF0C948B023E
:100500009A95A330B1F0A230C1F0A130D1F0A03063
:10051000E1F00C948B0202FF0C948F02B39503FF61
:100520000C940D03BA953130A1F03030B1F00C9439
:100530000D039F3FB1F00C948B029F3FB1F00C94E0
:100540008B029F3FB1F00C948B029030B1F00C9471
:100550008B02BF3FB1F00C940D03B030B1F00C949E
:100560000D0399E0A2E00C948B0299E0A1E00C94B9
:100570008B0299E0A0E00C948B0291E0A3E00C9434
:100580008B02B9E030E00C940D03B2E031E00C9442
:100590000D0300FF0C94D70201FF0C94DA0202FF56
:1005A0000C94E80203FF0C94EB020C940D031394DB
:1005B0000C940D031A94D12DDF3F51F4D9E01D2E78
:1005C0002A94D22DDF3FA9F4D5E02D2E0C940D03F3
:1005D00033940C940D033A94D32DDF3F3D2E4A946F
:1005E000D42DD13041F0D03061F0DF3F81F00C9458
:1005F0000D030C940D034D2ED32DDAE03D2E0C94FB
:10060000D7024D2ED32DDAE03D2E0C94D702D2E046
:100610004D2ED3E03D2E0C94D702D89ADF910F9146
:100620000FBF0F91189500E00093800005E0009344
:10063000810001EE009385000BE70093840001E048
:1006400000936F0008952F932FB72F9311EE1093FF
:1006500085001BE710938400B09AC3952F912FBF9C
:100660002F91189500E004BD05E005BD04E606BD28
:1006700001E000936E0008950F930FB70F9301EB05
:1006800006BDA89A739402E3071939F677244F9AA6
:020690001895BB
:00000001FF
