:020000020000FC
:040000000C9422003A
:04000C000C949500BB
:100040000C94B7000FEF0DBF18E01EBF00E800E8EA
:100050000093610001E0009361000FE70AB907E037
:1000600004B907E005B90FE307B920E001E0009308
:10007000680006E000936B001C9A789430E010E072
:1000800090E0C0E07F0EB79FCEDBFB0FFFCFEFFA13
:1000900073BEF3E350E060E00E9475006A30B9F08F
:1000A0007233C9F00E945A001B9A1C9A0E947F006A
:1000B0000E9489003FEF3A95F1F73FEF3A95F1F74B
:1000C0003FEF3A95F1F73FEF3A95A9F7089560E0D1
:1000D00053950C944E00639570E00C944E000E9472
:1000E0005B0050E060E00C944E00A0E0A4BDA5E0F1
:1000F000A5BDA4E6A6BDA1E0A0936E000895F0E022
:10010000E4E8E50F94919BB90E945A001B9A1C9A4F
:100110000895F0E0E4E8E60F94919BB90E945B003B
:100120005630E9F20C944E0008950F930FB70F93D9
:1001300043B141FD0C949F002A950C94A50042FD0B
:100140000C94A50023950C94A5002F3F41F020317D
:1001500051F028B9D89A0F910FBF0F91189520E050
:1001600028B90C94A5002FE028B90C94A5000F9392
:100170000FB70F9304E606BDA89A73950F910FBFB2
:040180000F9118952E
:00000001FF
