:100000000C9434000C9446000C9446000C9446006A
:100010000C9446000C9446000C9446000C94460048
:100020000C9446000C9446000C9446000C94460038
:100030000C9446000C9446000C9446000C94460028
:100040000C9446000C9446000C9446000C94460018
:100050000C9446000C948D000C9446000C944600C1
:100060000C9446000C94460011241FBECFEFD8E03C
:10007000DEBFCDBF21E0A0E0B1E001C01D92A23003
:10008000B207E1F70E9481000C94AE000C940000CE
:10009000ECE7F0E086E0808380818064808380816B
:1000A0008F778083808180628083EAE7F0E010822E
:1000B0008081886080838081876080838081806880
:1000C00080830895F8948FEF84B915B88AB91BB866
:1000D0008FE387B918B8A0EBB0E01C92E1EBF0E039
:1000E00010828C9180688C938C9183608C9380813A
:1000F000877F80838081876080830E944800789416
:1001000008950E946200EAE7F0E0808180648083C5
:10011000809100018093B300FBCF1F920F920FB626
:100120000F9211248F939F93EF93FF938091790007
:1001300090E09093010180930001EAE7F0E0808174
:1001400080618083808180648083FF91EF919F91A3
:100150008F910F900FBE0F901F901895F894FFCFBE
:00000001FF
