:100000000C9476000C9493000C9493000C94DE04F2
:100010000C9493000C9414040C9493000C9493008F
:100020000C9493000C9493000C9493000C94930004
:100030000C9493000C9493000C9493000C949300F4
:100040000C9493000C9493000C9484050C949300EE
:100050000C9493000C9493000C9493000C949300D4
:100060000C9493000C9493001702260239024C0260
:100070005F02720285029802AB02BE0213041304EF
:1000800013041304130413041304130413041304B8
:1000900013041304130413041304130413041304A8
:1000A0001304130413041304130413041304130498
:1000B0001304130413041304130413041304130488
:1000C00013041304130413041304D102E402F7020B
:1000D0000A031D0330034303560369037C038F03A4
:1000E000A203B503C803DB03EE03010411241FBE02
:1000F000CFEFD8E0DEBFCDBF11E0A0E0B1E0E6E396
:10010000F4E102C005900D92A230B107D9F721E0C9
:10011000A2E0B1E001C01D92AE30B207E1F70E944B
:100120000F010C94190A0C940000ECE7F0E0108227
:1001300080818064808380818F77808380818062EA
:100140008083EAE7F0E0108280818068808380818C
:1001500081608083808182608083808184608083ED
:10016000EEE7F0E08081816080838081826080831F
:100170008081846080830895ECE7F0E09081907F37
:10018000892B8083EAE7F0E080818064808380911E
:100190007A0086FDFCCF8091790008958AB18B7238
:1001A0008AB98BB1846D8BB984B18E7C84B985B1E9
:1001B000816385B987B1876087B988B1887F88B93D
:1001C0000E9495004FE35CE968E070E080E00E94E7
:1001D00013064FE35CE968E070E080E00E944006AF
:1001E00060E074E080E00E943F0760E074E080E03F
:1001F0000E9461070E94EF07E8E6F0E080818460DA
:100200008083ADE6B0E08C9184698C9380818160BD
:100210008083EBE6F0E08081816380830895F89429
:100220000E94CE0078948091020190910301813068
:100230009105E9F182309105E9F1892B09F09FC020
:1002400081E088B98FE39CE90197F1F700C00000D5
:1002500086E00E94BC0080930B010E946D068FE334
:100260009CE90197F1F700C0000084E00E94BC0007
:1002700080930A010E9483078FE39CE90197F1F7BD
:1002800000C0000085E00E94BC00809309010E942C
:10029000A8068FE39CE90197F1F700C0000087E012
:1002A0000E94BC00809308010E94B907BCCF82E085
:1002B00088B9B9CF83E088B9809100018130B1F469
:1002C00060910401709105018091060190910701F0
:1002D0000E94E908862F60930B010E946D068FE350
:1002E0009CE90197F1F700C000009DCF8230B1F486
:1002F00060910401709105018091060190910701C0
:100300000E94E908862F60930A010E9483078FE309
:100310009CE90197F1F700C0000085CF8330B1F46C
:10032000609104017091050180910601909107018F
:100330000E94E908862F609309010E94A8068FE3B6
:100340009CE90197F1F700C000006DCF843009F0FF
:100350006ACF60910401709105018091060190912E
:1003600007010E94E908862F609308010E94B907DF
:100370008FE39CE90197F1F700C0000054CF109281
:100380000301109202014FCFF999FECF92BD81BDBA
:100390008FB381608FBB80B50895F999FECF92BD70
:1003A00081BD60BD8FB384608FBB8FB382608FBB14
:1003B0000895883749F018F4873721F1089589376F
:1003C00069F08A37A9F0089581E0809300018FE1F8
:1003D0009EE40197F1F700C00000089582E0809349
:1003E00000018FE19EE40197F1F700C0000008953D
:1003F00083E0809300018FE19EE40197F1F700C054
:100400000000089584E0809300018FE19EE401974D
:10041000F1F700C00000089590E0FC01F097E2348D
:10042000F10508F000C2EC5CFF4F0C94130A109227
:1004300004011092050110920601109207018FE14C
:100440009EE40197F1F700C00000089580E090E07D
:10045000A0E2B1E48093040190930501A09306010A
:10046000B09307018FE19EE40197F1F700C000000F
:10047000089580E090E0A0EAB1E4809304019093B5
:100480000501A0930601B09307018FE19EE4019757
:10049000F1F700C00000089580E090E0A0EFB1E423
:1004A0008093040190930501A0930601B093070186
:1004B0008FE19EE40197F1F700C00000089580E00D
:1004C00090E0A0E2B2E48093040190930501A09330
:1004D0000601B09307018FE19EE40197F1F700C098
:1004E0000000089580E090E0A8E4B2E48093040165
:1004F00090930501A0930601B09307018FE19EE45C
:100500000197F1F700C00000089580E090E0A0E7B7
:10051000B2E48093040190930501A0930601B09387
:1005200007018FE19EE40197F1F700C000000895F4
:1005300080E090E0ACE8B2E4809304019093050180
:10054000A0930601B09307018FE19EE40197F1F7B4
:1005500000C00000089580E090E0A0EAB2E480933B
:10056000040190930501A0930601B09307018FE168
:100570009EE40197F1F700C00000089580E090E04C
:10058000A4EBB2E48093040190930501A0930601CB
:10059000B09307018FE19EE40197F1F700C00000DE
:1005A000089580E090E0A8ECB2E480930401909379
:1005B0000501A0930601B09307018FE19EE4019726
:1005C000F1F700C00000089580E090E0ACEDB2E4E7
:1005D0008093040190930501A0930601B093070155
:1005E0008FE19EE40197F1F700C00000089580E0DC
:1005F00090E0A0EFB2E48093040190930501A093F2
:100600000601B09307018FE19EE40197F1F700C066
:100610000000089580E090E0A2E0B3E4809304013C
:1006200090930501A0930601B09307018FE19EE42A
:100630000197F1F700C00000089580E090E0ACE081
:10064000B3E48093040190930501A0930601B09355
:1006500007018FE19EE40197F1F700C000000895C3
:1006600080E090E0A6E1B3E480930401909305015B
:10067000A0930601B09307018FE19EE40197F1F783
:1006800000C00000089580E090E0A0E2B3E4809311
:10069000040190930501A0930601B09307018FE137
:1006A0009EE40197F1F700C00000089580E090E01B
:1006B000AAE2B3E48093040190930501A09306019C
:1006C000B09307018FE19EE40197F1F700C00000AD
:1006D000089580E090E0A4E3B3E480930401909354
:1006E0000501A0930601B09307018FE19EE40197F5
:1006F000F1F700C00000089580E090E0AEE3B3E4BD
:100700008093040190930501A0930601B093070123
:100710008FE19EE40197F1F700C00000089580E0AA
:1007200090E0A8E4B3E48093040190930501A093C2
:100730000601B09307018FE19EE40197F1F700C035
:100740000000089580E090E0A2E5B3E48093040106
:1007500090930501A0930601B09307018FE19EE4F9
:100760000197F1F700C00000089580E090E0ACE54B
:10077000B3E48093040190930501A0930601B09324
:1007800007018FE19EE40197F1F700C00000089592
:1007900080E090E0A6E6B3E4809304019093050125
:1007A000A0930601B09307018FE19EE40197F1F752
:1007B00000C00000089580E090E0A0E7B3E48093DB
:1007C000040190930501A0930601B09307018FE106
:1007D0009EE40197F1F700C00000089580E090E0EA
:1007E000AAE7B3E48093040190930501A093060166
:1007F000B09307018FE19EE40197F1F700C000007C
:10080000089580E090E0AFE7B3E480930401909313
:100810000501A0930601B09307018FE19EE40197C3
:10082000F1F700C0000008951F920F920FB60F92CB
:1008300011242F933F934F935F936F937F938F93E5
:100840009F93AF93BF93EF93FF934F9920C02FEFE8
:1008500080E792E0215080409040E1F700C0000026
:100860004F999BC080910201909103010196909352
:10087000030180930201809102019091030103978B
:100880000CF48BC0109203011092020186C04C99A7
:1008900041C084E088B98091020190910301892BC5
:1008A000C9F460910B0180E090E00E94CD0160915D
:1008B0000A0181E090E00E94CD016091090182E08F
:1008C00090E00E94CD016091080183E090E00E94D9
:1008D000CD0163C08091020190910301019709F05D
:1008E0005CC080E090E00E94C4010E946D0681E03F
:1008F00090E00E94C4010E94830782E090E00E9481
:10090000C4010E94A80683E090E00E94C4010E94F6
:10091000B90743C04A9941C08091020190910301F7
:10092000892BD9F484E088B960910B018CE090E0C8
:100930000E94CD0160910A018DE090E00E94CD01FE
:10094000609109018EE090E00E94CD016091080164
:100950008FE090E00E94CD0120C080910201909133
:1009600003010197D1F484E088B98CE090E00E9403
:10097000C4010E946D068DE090E00E94C4010E94B7
:1009800083078EE090E00E94C4010E94A8068FE0D9
:1009900090E00E94C4010E94B907FF91EF91BF91BE
:1009A000AF919F918F917F916F915F914F913F9107
:1009B0002F910F900FBE0F901F9018951F920F92BE
:1009C0000FB60F9211242F933F934F935F936F9322
:1009D0007F938F939F93AF93BF93EF93FF93189958
:1009E00041C084E088B98091020190910301892B74
:1009F000C9F460910B0184E090E00E94CD01609108
:100A00000A0185E090E00E94CD016091090186E035
:100A100090E00E94CD016091080187E090E00E9483
:100A2000CD0161C08091020190910301019709F00D
:100A30005AC084E090E00E94C4010E946D0685E0E7
:100A400090E00E94C4010E94830786E090E00E942B
:100A5000C4010E94A80687E090E00E94C4010E94A1
:100A6000B90741C01C993FC084E088B98091020158
:100A700090910301892BC9F460910B0188E090E00B
:100A80000E94CD0160910A0189E090E00E94CD01B1
:100A9000609109018AE090E00E94CD016091080117
:100AA0008BE090E00E94CD011EC0809102019091E8
:100AB00003010197C1F488E090E00E94C4010E9404
:100AC0006D0689E090E00E94C4010E9483078AE0DD
:100AD00090E00E94C4010E94A8068BE090E00E9472
:100AE000C4010E94B907FF91EF91BF91AF919F910F
:100AF0008F917F916F915F914F913F912F910F90C7
:100B00000FBE0F901F9018951F920F920FB60F9265
:100B100011242F933F934F935F936F937F938F9302
:100B20009F93AF93BF93EF93FF93E6ECF0E0808148
:100B300080930C01908190930D010E94D9018091C6
:100B40000C010E940C02FF91EF91BF91AF919F9118
:100B50008F917F916F915F914F913F912F910F9066
:100B60000FBE0F901F9018954F925F926F927F92D9
:100B7000AF92BF92CF92DF92EF92FF920F931F93AB
:100B8000CF93DF93CDB7DEB728970FB6F894DEBFCB
:100B90000FBECDBF29013A01ED82FE820F83188777
:100BA0000E940A0869837A838B839C83A60195013E
:100BB000698D7A8D8B8D9C8D0E940A089B01AC01FA
:100BC00069817A818B819C810E94A60969837A83DD
:100BD0008B839C83A3019201C801B7010E940A087C
:100BE0009B01AC0169817A818B819C810E9477088D
:100BF0009B01AC01C601B5010E940B0828960FB6F7
:100C0000F894DEBF0FBECDBFDF91CF911F910F9142
:100C1000FF90EF90DF90CF90BF90AF907F906F905C
:100C20005F904F90089594B1926094B9E0E8F0E03D
:100C3000908192609083E1E8F0E0908198619083E8
:100C40005093870040938600882331F0E0E8F0E07D
:100C50008081806C808305C0E0E8F0E0808180685E
:100C600080836830710531F4E1E8F0E080818260D2
:100C700080830895E1E8F0E08081846080830895B6
:100C800094B1946094B9E0E8F0E090819260908330
:100C9000E1E8F0E090819861908350938700409361
:100CA0008600882331F0E0E8F0E080818063808373
:100CB00005C0E0E8F0E080818062808368307105E3
:100CC00031F4E1E8F0E08081826080830895E1E81A
:100CD000F0E08081846080830895AF92BF92CF92CC
:100CE000DF92EF92FF920F931F93682F70E080E0E6
:100CF00090E00E94180925E42F9325E82F9325E51D
:100D00002F932F930F2EFCE1AF2EF7ECBF2EFCEFAD
:100D1000CF2EF4E4DF2EF02DE12CF12C0FE713E4BD
:100D200020E030E0A9010E94B4050F900F900F90D1
:100D30000F900E94E90870938900609388001F91CA
:100D40000F91FF90EF90DF90CF90BF90AF900895FC
:100D5000AF92BF92CF92DF92EF92FF920F931F93C9
:100D6000682F70E080E090E00E94180925E42F933E
:100D70002AE72F931F921F920F2EA12CB12CF1EE78
:100D8000CF2EF4E4DF2EF02DE12CF12C0FE713E44D
:100D900020E030E0A9010E94B4050F900F900F9061
:100DA0000F900E94E90870938B0060938A001F9156
:100DB0000F91FF90EF90DF90CF90BF90AF9008958C
:100DC0004F925F926F927F92AF92BF92CF92DF92DB
:100DD000EF92FF920F931F93CF93DF93CDB7DEB7C0
:100DE00028970FB6F894DEBF0FBECDBF29013A0198
:100DF000ED82FE820F8318870E940A0869837A8336
:100E00008B839C83A6019501698D7A8D8B8D9C8D3A
:100E10000E940A089B01AC0169817A818B819C81C7
:100E20000E94A60969837A838B839C83A301920124
:100E3000C801B7010E940A089B01AC0169817A814F
:100E40008B819C810E9477089B01AC01C601B50192
:100E50000E940B0828960FB6F894DEBF0FBECDBFD8
:100E6000DF91CF911F910F91FF90EF90DF90CF9086
:100E7000BF90AF907F906F905F904F90089594B126
:100E8000986094B9E0EBF0E09081936090838823C0
:100E900021F08081806C808305C0E0EBF0E08081F0
:100EA000806880836115744031F4E1EBF0E080816B
:100EB000876080830895E1EBF0E08081816080832A
:100EC00008959AB198609AB9E0EBF0E09081936050
:100ED0009083882321F080818063808305C0E0EBCC
:100EE000F0E08081806280836115744031F4E1EB31
:100EF000F0E08081876080830895E1EBF0E08081FD
:100F0000816080830895AF92BF92CF92DF92EF927B
:100F1000FF920F931F93682F70E080E090E00E9493
:100F2000180922E42F9320E12F931F921F920F2E76
:100F3000A12CB12CF0ECCF2EF0E4DF2EF02DE12C23
:100F4000F12C0FE713E420E030E0A9010E94E00655
:100F50000F900F900F900F900E94E9086093B300DC
:100F60001F910F91FF90EF90DF90CF90BF90AF90C7
:100F70000895AF92BF92CF92DF92EF92FF920F93BC
:100F80001F93682F70E080E090E00E94180922E42F
:100F90002F9320E12F931F921F920F2EA12CB12C83
:100FA000F0EECF2EF1E4DF2EF02DE12CF12C0FE747
:100FB00013E420E030E0A9010E94E0060F900F90BA
:100FC0000F900F900E94E9086093B4001F910F9159
:100FD000FF90EF90DF90CF90BF90AF9008958AB1CF
:100FE0008E7F8AB98AB182608AB91092C000E1EC22
:100FF000F0E01082808188698083E2ECF0E010826A
:1010000080818660808387E690E09093C50080931E
:10101000C40008955058BB27AA270E9422080C94A8
:101020006C090E945E0938F00E94650920F039F4CD
:101030009F3F19F426F40C945B090EF4E095E7FB4E
:101040000C945509E92F0E947D0958F3BA176207DD
:1010500073078407950720F079F4A6F50C949F098F
:101060000EF4E0950B2EBA2FA02D0B01B9019001C3
:101070000C01CA01A0011124FF27591B99F0593F07
:1010800050F4503E68F11A16F040A22F232F342F4F
:101090004427585FF3CF469537952795A795F0409D
:1010A0005395C9F77EF41F16BA0B620B730B840BB2
:1010B000BAF09150A1F0FF0FBB1F661F771F881F6A
:1010C000C2F70EC0BA0F621F731F841F48F48795C2
:1010D00077956795B795F7959E3F08F0B0CF9395B4
:1010E000880F08F09927EE0F9795879508950E942D
:1010F0008B080C946C090E94650958F00E945E09E7
:1011000040F029F45F3F29F00C94550951110C94DB
:10111000A0090C945B090E947D0968F39923B1F33F
:10112000552391F3951B550BBB27AA27621773070D
:10113000840738F09F5F5F4F220F331F441FAA1FA1
:10114000A9F335D00E2E3AF0E0E832D0915050405D
:10115000E695001CCAF72BD0FE2F29D0660F771F0B
:10116000881FBB1F261737074807AB07B0E809F0F1
:10117000BB0B802DBF01FF2793585F4F3AF09E3F76
:10118000510578F00C9455090C94A0095F3FE4F3E5
:10119000983ED4F3869577956795B795F7959F5FB9
:1011A000C9F7880F911D9695879597F90895E1E005
:1011B000660F771F881FBB1F621773078407BA0764
:1011C00020F0621B730B840BBA0BEE1F88F7E095BF
:1011D00008950E94850988F09F5798F0B92F9927A4
:1011E000B751B0F0E1F0660F771F881F991F1AF012
:1011F000BA95C9F714C0B13091F00E949F09B1E0CF
:1012000008950C949F09672F782F8827B85F39F0CD
:10121000B93FCCF3869577956795B395D9F73EF4AA
:1012200090958095709561957F4F8F4F9F4F089552
:10123000E89409C097FB3EF4909580957095619570
:101240007F4F8F4F9F4F9923A9F0F92F96E9BB2726
:101250009395F695879577956795B795F111F8CFA2
:10126000FAF4BB0F11F460FF1BC06F5F7F4F8F4F0D
:101270009F4F16C0882311F096E911C0772321F003
:101280009EE8872F762F05C0662371F096E8862F9B
:1012900070E060E02AF09A95660F771F881FDAF7F2
:1012A000880F9695879597F9089597F99F6780E835
:1012B00070E060E008959FEF80EC089500240A94A8
:1012C0001616170618060906089500240A94121621
:1012D0001306140605060895092E0394000C11F454
:1012E000882352F0BB0F40F4BF2B11F460FF04C001
:1012F0006F5F7F4F8F4F9F4F089557FD9058440F5A
:10130000551F59F05F3F71F04795880F97FB991F64
:1013100061F09F3F79F08795089512161306140621
:10132000551FF2CF4695F1DF08C0161617061806AE
:10133000991FF1CF86957105610508940895E89489
:10134000BB2766277727CB0197F908950E94B90933
:101350000C946C090E945E0938F00E94650920F027
:10136000952311F00C9455090C945B0911240C94ED
:10137000A0090E947D0970F3959FC1F3950F50E07D
:10138000551F629FF001729FBB27F00DB11D639F37
:10139000AA27F00DB11DAA1F649F6627B00DA11DDD
:1013A000661F829F2227B00DA11D621F739FB00D83
:1013B000A11D621F839FA00D611D221F749F3327F3
:1013C000A00D611D231F849F600D211D822F762F8C
:1013D0006A2F11249F5750409AF0F1F088234AF069
:1013E000EE0FFF1FBB1F661F771F881F91505040D5
:1013F000A9F79E3F510580F00C9455090C94A00963
:101400005F3FE4F3983ED4F3869577956795B7955B
:10141000F795E7959F5FC1F7FE2B880F911D969575
:10142000879597F90895EE0FFF1F0590F491E02D31
:061430000994F894FFCFBF
:021436000100B3
:00000001FF
