S00C00004C4142352E7372656314
S11300000C9434000C9446000C9446000C94460066
S11300100C9446000C9446000C9446000C94460044
S11300200C9446000C9446000C9446000C94460034
S11300300C9446000C9446000C9446000C94460024
S11300400C9446000C9446000C9446000C94460014
S11300500C9446000C94A1000C9446000C944600A9
S11300600C9446000C94460011241FBECFEFD8E038
S1130070DEBFCDBF21E0A0E0B1E001C01D92A230FF
S1130080B207E1F70E9480000C94E7000C94000092
S1130090ECE7F0E087E08083808180648083808166
S11300A08F778083808180628083EAE7F0E010822A
S11300B0808188608083808187608083808180687C
S11300C080830895F8948FEF84B915B88AB91BB862
S11300D01092C100A0E8B0E01C92E1E8F0E01082C8
S11300E08C9180688C938C9181608C9380818860E2
S11300F080838081856080830E944800789408957D
S11301000E946200EAE7F0E080818064808380914D
S113011000019091010166E070E00E94BF00E8E8F0
S1130120F0E0718360838081918180819181853643
S1130130910540F384E690E09093890080938800D1
S1130140E1CF1F920F920FB60F9211248F939F93BA
S1130150EF93FF938091790090E090930101809355
S11301600001EAE7F0E0808180618083FF91EF91F4
S11301709F918F910F900FBE0F901F90189597FB32
S1130180072E16F4009407D077FD09D00E94D300FF
S113019007FC05D03EF4909581959F4F0895709586
S11301A061957F4F0895AA1BBB1B51E107C0AA1F8D
S11301B0BB1FA617B70710F0A61BB70B881F991F04
S11301C05A95A9F780959095BC01CD010895F894AE
S10501D0FFCF5B
S9030000FC
