S00C00004C4142342E7372656315
S11300000C9434000C9451000C9451000C9419017C
S11300100C9451000C9451000C9451000C94510018
S11300200C9451000C9451000C9451000C94510008
S11300300C9451000C9451000C9451000C945100F8
S11300400C9451000C9451000C9451000C945100E8
S11300500C9451000C94FB000C9451000C9451002E
S11300600C9451000C94510011241FBECFEFD8E022
S1130070DEBFCDBF11E0A0E0B1E0EEE9F2E002C0E6
S113008005900D92A031B107D9F721E0A0E1B1E0CC
S113009001C01D92A831B207E1F70E94C0000C9480
S11300A04D010C94000085B1886085B9E09116017A
S11300B0F0911701E050FF4F80818BB98FE19EE4EE
S11300C00197F1F700C0000085B1877F85B985B13C
S11300D0846085B9E0911401F0911501E050FF4F5F
S11300E080818BB98FE19EE40197F1F700C0000095
S11300F085B18B7F85B985B1806185B98091100107
S11301008BB98FE99FE00197F1F700C0000085B13A
S11301108F7E85B90895ECE7F0E087E080838081E5
S11301208064808380818F778083808180628083F4
S1130130EAE7F0E0108280818860808380818760B4
S113014080838081806880830895F8948CEF84B9DB
S113015083E085B98FEF8AB91BB88FE387B918B8E4
S1130160EBE6F0E0808183608083E8E6F0E0808164
S1130170816080831092C1000E948B00789408955E
S11301800E94A500EAE7F0E08081806480838FE329
S11301909CE90197F1F700C0000080911201909151
S11301A013019C012F7033273093170120931601FC
S11301B09C01359527953595279535952795359542
S11301C027952F7033273093150120931401209124
S11301D01001309111012817390724F485B1806288
S11301E085B906C0281739071CF085B18F7D85B9FC
S11301F00E945300C7CF1F920F920FB60F92112483
S11302008F939F93EF93FF938091790090E0909365
S1130210130180931201EAE7F0E08081806180831A
S1130220FF91EF919F918F910F900FBE0F901F90B0
S113023018951F920F920FB60F9211248F939F93CC
S1130240199911C080911001909111010196909318
S11302501101809310018F3F910529F024F0109231
S1130260110110921001189911C080911001909100
S1130270110101979093110180931001992334F493
S11302808FEF90E090931101809310019F918F91D3
S11102900F900FBE0F901F901895F894FFCF9B
S113029E3F065B4F666D7D077F6F777C395E7971A4
S9030000FC
