:100000000C9434000C9446000C9446000C9461004F
:100010000C9446000C9446000C9446000C94460048
:100020000C9446000C9446000C9446000C94460038
:100030000C9446000C9446000C9446000C94460028
:100040000C9446000C9446000C9446000C94460018
:100050000C9446000C9446000C9446000C94460008
:100060000C9446000C94460011241FBECFEFD8E03C
:10007000DEBFCDBF21E0A0E0B1E001C01D92A23003
:10008000B207E1F70E945E000C94B1000C940000EE
:100090008CEF84B983E085B98FEF8AB91BB88FE301
:1000A00087B918B8EBE6F0E0808183608083E8E6EA
:1000B000F0E0808181608083789408950E944800F8
:1000C000FFCF1F920F920FB60F9211248F939F9321
:1000D000189920C0809100019091010101969093A0
:1000E0000101809300018F3F910534F08FEF90E084
:1000F0009093010180930001809100019091010192
:100100009595879595958795807385B98091000120
:100110008F7388B919991EC08091000190910101D7
:10012000019790930101809300011816190624F09D
:100130001092010110920001809100019091010143
:100140009595879595958795807385B980910001E0
:100150008F7388B99F918F910F900FBE0F901F9052
:060160001895F894FFCF92
:00000001FF
