:100000000C9434000C9451000C9451000C94510049
:100010000C9451000C9451000C9451000C9451001C
:100020000C9451000C9451000C9451000C9451000C
:100030000C9451000C9451000C9451000C945100FC
:100040000C9451000C9451000C9418010C94510024
:100050000C9451000C9402010C9451000C9451002A
:100060000C9451000C94510011241FBECFEFD8E026
:10007000DEBFCDBF11E0A0E0B1E0E4E4F8E002C0F3
:1000800005900D92A639B107D9F721E0A6E9B1E0B4
:1000900001C01D92A939B207E1F70E947F000C94BC
:1000A00020040C94000087E690E09093C5008093B4
:1000B000C40088E98093C10086E08093C20008955F
:1000C000FC0107C09091C00095FFFCCF3196809352
:1000D000C60080818111F6CF08959091C00095FFF0
:1000E000FCCF8093C600089587E480937C008FE85E
:1000F00080937A0008958FEF84B987B90895CF93DC
:10010000DF93CDB7DEB76E970FB6F894DEBF0FBEA4
:10011000CDBF0E9453000E9474000E947B0078941F
:1001200080E091E00E94600088E191E00E94600020
:100130008AE291E00E94600090E00EC080919801F8
:10014000882351F080919801109298012FEC280F8C
:10015000223010F490ED980F992381F3913019F02B
:10016000923079F14AC0EAE7F0E0808180648083D0
:1001700080917A0086FDFCCF809178009091790083
:1001800090939701809396018091960190919701A9
:100190009F938F9380E491E09F938F931F928EE1C2
:1001A0008F938E010F5F1F4F1F930F930E942801A3
:1001B000C8010E9460000FB6F894DEBF0FBECDBF2D
:1001C000AFCF80E591E00E94600080919801882384
:1001D000E1F38091980110929801982F9F7395B93F
:1001E000982F929596959695937098B90E946D0068
:1001F00082E991E00E94600093CF8CE691E00E943A
:1002000060008ECF1F920F920FB60F9211248F9322
:100210009F938091780090917900909397018093BB
:1002200096019F918F910F900FBE0F901F90189580
:100230001F920F920FB60F9211248F938091C600D8
:10024000809398018F910F900FBE0F901F9018957B
:10025000AEE0B0E0EEE2F1E00C94F7030D891E8908
:100260008F89988D26E02C831A83098397FF02C01B
:1002700080E090E801979E838D83AE01455E5F4FDD
:10028000698D7A8DCE0101960E9458014D815E8163
:1002900057FD0AC02F813885421753070CF49A0185
:1002A000F801E20FF31F10822E96E4E00C94130481
:1002B000ABE0B0E0EEE5F1E00C94E9036C017B010A
:1002C0008A01FC0117821682838181FFCCC1CE0195
:1002D00001963C01F6019381F70193FD859193FF0F
:1002E00081917F01882309F4BAC1853239F493FDE5
:1002F000859193FF81917F01853229F4B60190E0C9
:100300000E944F03E7CF912C212C312CFFE1F315F4
:10031000D8F08B3279F038F4803279F08332A1F45E
:10032000232D20611DC08D3261F0803369F4232DAF
:10033000216016C0832D8260382EE32DE4603E2EAE
:100340002AC0F32DF8601DC037FC2DC020ED280F0A
:100350002A3040F08E32B9F436FC81C1232D20645E
:10036000322E19C036FE06C08AE0989E200D112458
:10037000922E11C0EAE02E9E200D1124222EF32D84
:10038000F0623F2E08C08C3621F4832D8068382E11
:1003900002C0883641F4F70193FD859193FF819166
:1003A0007F018111B3CF982F9F7D9554933028F40E
:1003B0000C5F1F4F9FE399830DC0833631F0833765
:1003C00071F0833509F059C021C0F801808189831B
:1003D0000E5F1F4F88248394912C530113C0280172
:1003E000F2E04F0E511CF801A080B18036FE03C030
:1003F000692D70E002C06FEF7FEFC5010E944403DA
:100400004C018201F32DFF773F2E16C0280122E018
:10041000420E511CF801A080B18036FE03C0692D48
:1004200070E002C06FEF7FEFC5010E9439034C01FD
:10043000F32DF0683F2E820133FC1BC0822D90E02B
:1004400088169906B0F4B60180E290E00E944F034E
:100450002A94F4CFF50137FC859137FE81915F0135
:10046000B60190E00E944F0321102A9421E0821AE5
:1004700091088114910471F7E8C0843611F089362F
:1004800041F5F80137FE07C0608171818281938157
:100490000C5F1F4F08C060817181072E000C880B14
:1004A000990B0E5F1F4FF32DFF763F2E97FF09C06C
:1004B00090958095709561957F4F8F4F9F4FF06815
:1004C0003F2E2AE030E0A3010E948B03882E86187D
:1004D00045C0853731F4232D2F7EB22E2AE030E03F
:1004E00025C0932D997FB92E8F36C1F018F4883529
:1004F00079F0B5C0803719F0883721F0B0C0E92F06
:10050000E061BE2EB4FE0DC0FB2DF460BF2E09C00D
:1005100034FE0AC0292F2660B22E06C028E030E043
:1005200005C020E130E002C020E132E0F801B7FE72
:1005300007C060817181828193810C5F1F4F06C06B
:100540006081718180E090E00E5F1F4FA3010E94E7
:100550008B03882E8618FB2DFF773F2E36FE0DC0AD
:10056000232D2E7FA22E891458F434FE0BC032FCAA
:1005700009C0832D8E7EA82E05C0B82CA32C03C0E5
:10058000B82C01C0B92CA4FE0FC0FE01E80DF11D6E
:100590008081803321F49A2D997EA92E09C0A2FE74
:1005A00006C0B394B39404C08A2D867809F0B3943E
:1005B000A3FC11C0A0FE06C0B21488F4280C922C33
:1005C0009B180EC0B21460F4B60180E290E00E9465
:1005D0004F03B394F7CFB21418F42B1802C0982C21
:1005E000212CA4FE10C0B60180E390E00E944F03CE
:1005F000A2FE17C0A1FC03C088E790E002C088E516
:1006000090E0B6010CC08A2D867859F0A1FE02C098
:100610008BE201C080E2A7FC8DE2B60190E00E946F
:100620004F03891438F4B60180E390E00E944F0331
:100630009A94F7CF8A94F301E80DF11D8081B601F9
:1006400090E00E944F038110F5CF222009F442CEA2
:10065000B60180E290E00E944F032A94F6CFF601A3
:100660008681978102C08FEF9FEF2B96E2E10C9479
:100670000504FC010590615070400110D8F7809589
:1006800090958E0F9F1F0895FC016150704001905E
:100690000110D8F7809590958E0F9F1F08950F93A6
:1006A0001F93CF93DF93FB01238121FD03C08FEFC5
:1006B0009FEF2CC022FF16C04681578124813581CF
:1006C0004217530744F4A081B1819D012F5F3F4F32
:1006D000318320838C93268137812F5F3F4F37836F
:1006E000268314C08B01EC01FB010084F185E02D11
:1006F0000995892BE1F6D80116968D919C91179753
:10070000019617969C938E931697CE01DF91CF9109
:100710001F910F910895FA01AA27283051F1203135
:1007200081F1E8946F936E7F6E5F7F4F8F4F9F4F85
:10073000AF4FB1E03ED0B4E03CD0670F781F891FC7
:100740009A1FA11D680F791F8A1F911DA11D6A0F95
:10075000711D811D911DA11D20D009F468943F9148
:100760002AE0269F11243019305D3193DEF6CF0147
:100770000895462F4770405D4193B3E00FD0C9F70D
:10078000F6CF462F4F70405D4A3318F0495D31FD7A
:100790004052419302D0A9F7EACFB4E0A6959795CD
:1007A000879577956795BA95C9F7009761057105A3
:1007B00008959B01AC010A2E0694579547953795ED
:1007C0002795BA95C9F7620F731F841F951FA01D47
:1007D00008952F923F924F925F926F927F928F92E5
:1007E0009F92AF92BF92CF92DF92EF92FF920F93C0
:1007F0001F93CF93DF93CDB7DEB7CA1BDB0B0FB6CA
:10080000F894DEBF0FBECDBF09942A883988488886
:100810005F846E847D848C849B84AA84B984C8841C
:10082000DF80EE80FD800C811B81AA81B981CE0F13
:10083000D11D0FB6F894DEBF0FBECDBFED010895F8
:04084000F894FFCF5A
:10084400312E204C65657220506F74656E63696F3C
:100854006D6574726F0D0A00322E20456E766961E3
:10086400722041534349490D0A00496E677265730A
:100874006520737520656C656363696F6E3A20004B
:1008840056616C6F72204144433A2025750D0A006D
:10089400496E677265736520656C2063617261637C
:1008A4007465722041534349493A2000456C65639D
:1008B4006369F36E20696E76616C6964612E204908
:1008C4006E74656E7465206E756576616D656E74A3
:0608D400652E0D0A000074
:00000001FF
